:020000040800F2
:1000000030300020193300080B0300080D030008EE
:100010001103000815030008190300080000000080
:100020000000000000000000000000001D030008A8
:100030001F03000800000000CD7F0008BD3000084D
:1000400033330008333300083333000833330008F8
:1000500033330008333300083333000833330008E8
:100060003333000833330008333300085D170008CA
:10007000791A0008832E0008333300083333000850
:1000800033330008333300083333000833330008B8
:1000900033330008333300083333000833330008A8
:1000A0003333000833330008333300083333000898
:1000B0003333000833330008333300083333000888
:1000C0003333000833330008333300083333000878
:1000D00033330008873200084D200008231A000837
:1000E0003333000833330008333300083333000858
:1000F0003333000833330008333300083333000848
:100100003333000833330008333300083333000837
:10011000452E00081D17000891020008E51400088C
:100120003333000833330008333300083333000817
:100130003333000833330008333300083333000807
:1001400033330008333300083333000833330008F7
:1001500033330008333300083333000833330008E7
:1001600033330008333300083333000833330008D7
:1001700033330008333300083333000833330008C7
:10018000333300083333000800F002F800F05CF865
:100190000AA090E8000C82448344AAF10107DA45E2
:1001A00001D100F051F8AFF2090EBAE80F0013F0D8
:1001B000010F18BFFB1A43F001031847FC7F000032
:1001C0001C8000000A444FF0000C10F8013B13F0B3
:1001D000070408BF10F8014B1D1108BF10F8015BA0
:1001E000641E05D010F8016B641E01F8016BF9D193
:1001F00013F0080F1EBF10F8014BAD1C0C1B09D1EA
:100200006D1E58BF01F801CBFAD505E014F8016B5B
:1002100001F8016B6D1EF9D59142D6D370470000ED
:100220000023002400250026103A28BF78C1FBD8FF
:10023000520728BF30C148BF0B6070471FB507F099
:1002400035FF1FBD10B510BD07F001FF1146FFF7C8
:10025000F5FF00F009F807F01FFF03B4FFF7F2FF06
:1002600003BC02F0B1FF000010B500F09FF905F0EB
:10027000C6F90A23044A0021044806F03BFE05F0B3
:10028000E5FA002010BD00005405002011120008FE
:1002900010B505F0CCF90121214804F01EFD01281C
:1002A00030D120480078401E1E4908701E48007852
:1002B000401E1D4908701D480078401E1B490870EB
:1002C0001848007830B91A48006806F0FDFC05208F
:1002D000144908701448007830B91648006806F0D0
:1002E000F3FC0520104908701048007830B9124816
:1002F000006806F0E9FC0A200C4908700121084852
:1003000004F0FCFC05F0AEF910BD704700BFFEE73D
:1003100000BFFEE700BFFEE700BFFEE77047704783
:10032000001000400000002001000020020000201A
:10033000180000201C000020240000200CB5002024
:10034000019000907648006840F48030744908605D
:1003500000BF7348006800F4003000900198401C12
:100360000190009818B90198B0F5A04FF1D16C48F0
:10037000006800F4003010B10120009001E000207E
:1003800000900098012846D165484030006840F050
:1003900080506349403108606248006840F4404042
:1003A000604908605E48083000685D4908310860AF
:1003B0000846006840F4004008600846006840F4C1
:1003C000A05008605848091F0860081F006840F0E6
:1003D0008070091F086000BF5148006800F000707D
:1003E0000028F9D040F20570504908604C480830A8
:1003F000006820F003004A49083108600846006898
:1004000040F00200086000BF45480830006800F076
:100410000C000828F8D10CBD10B54548006840F420
:100420007000434908603E48006840F001003C49C4
:10043000086000203A4908310860394800683D49A1
:100440000840374908603C48091D0860081F0068DB
:1004500020F48020091F0860002031490C31086019
:10046000FFF76CFF4FF0006031498039086010BD24
:1004700070B500200022022300240221284D0835F7
:100480002D6805F00C0020B1042806D0082834D1CE
:1004900007E02A4D2A4E356033E02A4D284E35605C
:1004A0002FE01F4D2D1D2D68C5F380541C4D2D1DB3
:1004B0002D6805F03F0154B1224DB5FBF1F5184E02
:1004C000361D3668C6F3881605FB06F209E01B4D9B
:1004D000B5FBF1F5124E361D3668C6F3881605FBDE
:1004E00006F20F4D2D1D2D68C5F301456D1C6B00E7
:1004F000B2FBF3F5124E356003E0104D104E35603F
:1005000000BF00BF064D08352D68C5F303150E4E1C
:10051000705D0B4D2D68C540094E356070BD000003
:10052000003802400070004008544007003C024080
:1005300088ED00E0FFFFF6FE103000240024F400F8
:100540000400002000127A000800002070B5054663
:100550000C4645F2555004F009FF284604F009FF07
:10056000204604F009FF04F00AFF04F00DFF70BDFF
:1005700010B504F004FF10BD70B5044604EB440050
:10058000C0EBC4104FF6FF7101EA800545F25550EB
:1005900004F0ECFE042004F0ECFE284604F0ECFE2F
:1005A00004F0EDFE04F0F0FE70BD00001CB54FF449
:1005B000A06002F0D1FEA82002F08CFD00F0A0FEA9
:1005C00000F0D1FE4FF4E13002F00BFE4FF4E130C9
:1005D00001F0D4FC4FF4E13001F092F94FF41650E1
:1005E00002F0A8FB4FF4165001F014F800F0ECFFF5
:1005F00001F082FE012005214FF4FA532822CDE9B3
:1006000000101946F2EE043A9FED473ADFED472A13
:100610009FED472ADFED471A9FED471ADFED470AA6
:100620009FED450A464801F0E9FE012005214FF4FF
:10063000FA532822CDE900101946F2EE043A9FED54
:100640003A3ADFED3A2A9FED3A2ADFED3A1A9FED6A
:100650003A1ADFED3A0A9FED380A3A4801F0CEFE29
:10066000012005214FF4FA532822CDE90010194644
:10067000F2EE043A9FED343ADFED2C2A9FED332A57
:10068000DFED2C1A9FED2C1ADFED2C0A9FED2A0AC4
:100690002F4801F0B3FE012005214FF4FA53282220
:1006A000CDE900101946F3EE043AB2EE043ADFED5C
:1006B000292A9FED292AF1EE081A9FED281ADFED6D
:1006C000280A9FED1D0A274801F098FE002142F2FA
:1006D000CF0002F0F7F9002142F2CF0002F038FA21
:1006E000002142F2CF0002F0D3FA002142F2CF0003
:1006F00002F091F901F0D6FF02F02BF802F08CF82D
:1007000002F0E0F802F031F9532141F2873000F0B5
:100710008BFE632142F2CF0000F0B5FE4FF4C871AA
:100720000620FFF713FF1CBD9A99993F00000C4269
:100730000000AA42CDCC4C3E00000000CDCCCC3E07
:10074000DC170020341800206666064000002042B6
:100750008C1800200000164300000243CDCCCC3D95
:1007600048E17A3FE41800202DED028B82B000248E
:1007700000BF4FF4FA6002F0FDFC01F021FAA8E19D
:1007800001AA0021FE48006806F0EFF9FFF7F0FE2D
:10079000FC48007801287DD1FB4890ED010AFB4818
:1007A000D0ED010A80EE201AB1EE040A31EE400AC3
:1007B000B0EE408AF648D0ED000AF34801F00CFE96
:1007C000F44890ED010AF448D0ED010A80EE201AB9
:1007D000B1EE040A31EE000AB0EE408AEF48D0EDE7
:1007E000000AEC4801F0F8FD41F2707002F0C2FC22
:1007F0004FF48051EA4802F021FF4FF4967002F066
:10080000B9FCDFEDE80ABFEE000AE74801F0E4FDBD
:1008100041F2883002F0AEFCDFEDE20A9FEDE30A20
:10082000E14801F0D9FD41F2883002F0A3FC4FF419
:100830008051DB4802F004FF4FF4967002F09AFCFE
:10084000DB4890ED010ADB48D0ED010A80EE201A6A
:10085000B7EE000A31EE000AB0EE408ADFEDD60AAC
:10086000D34801F0B9FD4FF4167002F083FC0F225B
:100870004FF4FA71104602F010FB4FF42F7002F0A3
:1008800079FC73224FF4FA710F2002F006FB4FF44B
:10089000C87000E084E002F06DFC8922FA2101209A
:1008A00002F077FB6E22FA21022002F0F6FAFA201B
:1008B00002F060FC7322FA21032002F0EEFA4FF4FA
:1008C000FA7002F057FCA0226421012002F061FBC3
:1008D00085226421022002F0E0FA4FF4FA7002F05F
:1008E00049FC8922FA21012002F053FB6E22FA21F1
:1008F000022002F0D2FA4FF4FA7002F03BFCA02280
:100900006421012002F045FB85224FF4FA71022098
:1009100002F0C3FA4FF4FA7002F02CFCA522FA217F
:10092000032002F0BAFA2F229621012002F031FBB7
:1009300014229621022002F0B0FAC82002F01AFC1C
:10094000914890ED010A9148D0ED010A80EE201AFD
:10095000B0EE000A31EE400AB0EE408A8C48D0ED8D
:10096000000A894801F038FD8A4890ED010A8A485A
:10097000D0ED010A80EE201AB0EE000A31EE000A36
:10098000B0EE408A8548D0ED000A824801F024FD8F
:1009900040F6B83002F0EEFB00207A49087055E0CE
:1009A00078480078022851D19FED800A002001F09C
:1009B0000FFA754890ED010A7448D0ED010A80EEF7
:1009C000201AB0EE418A7248D0ED000AB0EE480A13
:1009D0006D4801F001FD6F4890ED010A6E48D0EDC1
:1009E000010A80EE201AB0EE418A6C48D0ED000A70
:1009F000B0EE480A674801F0EFFC4FF480516848B8
:100A000002F01EFE4FF40051654802F019FE2F223D
:100A10006421012002F0BDFA14226421022002F0B8
:100A20003CFAA522FA21032002F037FA732240F2A1
:100A3000DC510F2002F031FADFED600A9FED5B0A16
:100A4000594801F0C9FC00204E4908704FF4AF70BE
:100A500002F090FB5A480078502802D0522830D13A
:100A600019E05848007850B94FF480514C4802F0D2
:100A7000E5FD54480078401C5249087007E04FF4E7
:100A80008051474802F0DCFD00204E4908702120CB
:100A90004B49087016E00124434890ED010A4A488A
:100AA000D0ED010A80EE201AB0EE418AF3EE090A79
:100AB000B0EE480A3C4801F08FFC21204049087004
:100AC00000E000BF00BF24B101204049087000BF12
:100AD000FEE755E62DED028B82B000BFE1E201AAF0
:100AE00000213B48006806F040F8FFF741FD34481C
:100AF00000784E286ED00EDC46286CD006DC3F28ED
:100B00006AD0412869D0442868D130E1492866D0AC
:100B10004B28F9D1F7E154287ED004DC4F287CD053
:100B20005328F1D1D3E0572802D05828ECD169E1FD
:100B30009FED1E0A002001F04BF9134890ED010AC9
:100B40001248D0ED010A80EE201AB7EE000A31EE0D
:100B5000400AB0EE408A0E48D0ED000A0A4801F083
:100B60003BFC0C4890ED010A0B48D0ED010A80EEE9
:100B7000201AB7EE000A31EE000AB0EE408A2FE0EC
:100B8000240000208B000020DC170020AC00002097
:100B90002C00002034180020B40000203000002079
:100BA00000040240000020428C18002000000000D9
:100BB000E4180020C400002000000243000070423E
:100BC0008900002088000020BC000020A800002030
:100BD0001C000020F2E164E13AE22DE05FE255E220
:100BE000FD48D0ED000AFD4801F0F6FBFC4890ED11
:100BF000010AFC48D0ED010A80EE201AB0EE418ACD
:100C00005FED160AB0EE480AF54801F0E5FBF6483C
:100C100090ED010AF54801E0B9E12EE2D0ED010ABC
:100C200080EE201AB0EE418A5FED200AB0EE480A4D
:100C3000ED4801F0D1FB33E2ED4890ED010AED48BB
:100C4000D0ED010A80EE201AB7EE000A31EE400A1C
:100C5000B0EE408AE848D0ED000AE54801F0BCFB60
:100C6000DE4890ED010AE548D0ED010A80EE201A39
:100C7000B7EE000A31EE400AB0EE408AD648D0ED19
:100C8000000AD64801F0A8FBD54890ED010AD548E6
:100C9000D0ED010A80EE201AB0EE418A5FED3D0AE8
:100CA000B0EE480ACE4801F097FBCF4890ED010A1C
:100CB000CE48D0ED010A80EE201AB0EE418A5FEDF9
:100CC000450AB0EE480AC84801F086FBE8E11FED8E
:100CD000490A012001F07CF8C54890ED010AC54899
:100CE000D0ED010A80EE201AB7EE000A31EE000ABC
:100CF000B0EE408AC048D0ED000ABD4801F06CFB60
:100D0000B64890ED010ABD48D0ED010A80EE201AE8
:100D1000B7EE000A31EE400AB0EE408AAE48D0EDA0
:100D2000000AAE4801F058FBAD4890ED010AAD480D
:100D3000D0ED010A80EE201AB0EE418A5FED650A1F
:100D4000B0EE480AA64801F047FBA74890ED010A1B
:100D5000A648D0ED010A80EE201AB0EE418A5FED80
:100D60006D0AB0EE480AA04801F036FB98E1A048B1
:100D700090ED010A9F48D0ED010A80EE201AB7EEEF
:100D8000000A31EE000AB0EE408A9B48D0ED000A1E
:100D9000974801F021FB914890ED010A9748D0ED6A
:100DA000010A80EE201AB7EE000A31EE000AB0EE1A
:100DB000408A8948D0ED000A884801F00DFB884838
:100DC00090ED010A8748D0ED010A80EE201AB0EEBE
:100DD000418A5FED8A0AB0EE480A814801F0FCFAC8
:100DE000814890ED010A8148D0ED010A80EE201A79
:100DF000B0EE418A5FED930AB0EE480A7A4801F0FE
:100E0000EBFA4DE11FED970A002000F0E1FF784872
:100E100090ED010A7748D0ED010A80EE201AB0EE7D
:100E2000418A7548D0ED000AB0EE480A704801F0DA
:100E3000D3FA6A4890ED010A7048D0ED010A80EEBD
:100E4000201AB0EE418A6448D0ED000AB0EE480A9C
:100E5000624801F0C1FA212069490870604890EDAC
:100E6000010A6048D0ED010A80EE201AB0EE418AF6
:100E7000F3EE0E0AB0EE480A594801F0ADFA5A48AE
:100E800090ED010A5948D0ED010A80EE201AB0EE2B
:100E9000418A5FEDBC0AB0EE480A534801F09CFA63
:100EA000FEE04F48D0ED010A4E4890ED011A80EE69
:100EB000810ADFED540A30EE200AB0EE408AF3EEEC
:100EC0000E0A474801F088FA4FF47A7002F052F99E
:100ED000434890ED010A4348D0ED010A80EE201A04
:100EE0009FED490A31EE400AB0EE408AF3EE0E0A59
:100EF0003B4801F071FA4FF4FA7002F03BF92120FF
:100F00003F490870CCE04FF40051404802F096FB96
:100F10005FEDD60A9FED3E0A334801F05DFA4FF4CB
:100F200080513A4802F08AFB40F6B83002F022F9CC
:100F30004FF48051354802F083FBF2EE0E0A9FED2C
:100F4000340A294801F048FA45F2082002F012F963
:100F50005FEDEC0A1FEDEB0A234801F03DFA41F684
:100F6000DC6002F007F9F2EE0E0ABFEE000A1E483E
:100F700001F032FA40F6B83002F0FCF84FF40051BC
:100F8000224802F05DFB21201D49087088E01648C8
:100F900090ED010A1548D0ED010A80EE201AB7EE57
:100FA000000A31EE400AB0EE408AF3EE090A0E481C
:100FB00001F012FA3F201249087071E00A4890EDE2
:100FC000010ADFED140AB4EEE00AF1EE10FA28DDB2
:100FD000F3EE090A20E00000300000203418002061
:100FE000E4180020C40000208C180020BC00002061
:100FF000DC170020AC0000202C000020B4000020F2
:1010000089000020AE47E13D0AD7233C000402409E
:10101000CDCCE4C0000048429FEDA70A01F0DCF906
:1010200012E0A648D0ED010AA54890ED011A80EE25
:10103000810AF7EE000A30EE200AB0EE408AF3EEA5
:10104000090A9E4801F0C8F93F209E49087027E030
:101050009A4890ED010A9A48D0ED010A80EE201AD4
:10106000B0EE418AF3EE090AB0EE480A934801F067
:10107000B3F921209349087012E04FF400519248CF
:1010800002F0DCFA21208F49087009E04FF400518A
:101090008D4802F0D5FA21208A49087000E000BF8F
:1010A00000BF1CE508B500BF4FF4C87002F062F83D
:1010B00041224FF4FA71002001F0EFFE2F2264214B
:1010C000012001F066FF14226421022001F0E5FEF8
:1010D000A522FA21032001F0E0FE732240F2DC5148
:1010E0000F2001F0DAFE40F2DC5002F043F87CE021
:1010F0006A4600217548006805F037FDFFF738FAA9
:1011000073480078002870D071480078472856D07E
:10111000542865D18922FA21012001F03AFF6E227C
:10112000FA21022001F0B9FEFA2002F023F8412250
:10113000FA21032001F0B1FE4FF4FA7002F01AF820
:10114000A0226421012001F024FF852264210220D5
:1011500001F0A3FE4FF4967002F00CF88922FA21F8
:10116000012001F016FF6E22FA21022001F095FE07
:101170004FF4967001F0FEFFA0226421012001F0DF
:1011800008FF85224FF4FA71022001F086FE4FF429
:10119000E17001F0EFFFA522FA21032001F07DFEAE
:1011A0002F229621012001F0F4FE14229621022024
:1011B00001F073FE4FF4487001F0DCFF11E00F22E4
:1011C0004FF4FA71104601F068FE4FF42F7001F0F1
:1011D000D1FF73224FF4FA710F2001F05EFE00E0A0
:1011E00000BF00BF00203A49087081E700BF0DE052
:1011F000FFF7BEF93748006808B9012000E0002079
:10120000344908604FF4FA7001F0B4FFF0E770471A
:101210007FB50446002500BF0020039005F01FFCA9
:101220002A490860002005F01AFC2B4908600020BC
:1012300005F015FC29490860002005F010FC28493C
:10124000086006F09BFE054603A826A10022AFF227
:101250004103CDE90021029002220121002006F085
:1012600082FA224908600823214A0021AFF2830054
:1012700005F040FE05231F4A0021AFF2D71005F00C
:1012800039FE06231C4A0021AFF2B77005F032FE8A
:1012900004231A4A0021AFF62F3005F02BFE0A2056
:1012A00006F0A8F803A91148006806F0EEFB2846EE
:1012B00006F068FE7FBD0000000000008C180020D2
:1012C000BC0000208900002000040240180000201B
:1012D0008A000020AC8240421C0000202000002038
:1012E00024000020746D7231000000008400002092
:1012F0005409002054110020540D002054150020E2
:101300001CB50121022002F0BBFB4FF400600090ED
:1013100001208DF8040000208DF8060003208DF8D0
:10132000050002208DF807006946044802F00AF91A
:101330004FF40061014802F083F91CBD0004024033
:101340001CB50121042002F09BFB4FF4407000907B
:1013500000208DF8040001208DF80700694631480F
:1013600002F0F0F81CBD0EB5FFF7EAFF012188037B
:1013700002F0E0FB0821022002F0E7FC0921022034
:1013800002F0E3FC4FF48070009000208DF8040020
:101390000C208DF8050001208DF80600684603F04A
:1013A00097FD4FF40070009000208DF804000C2091
:1013B0008DF8050001208DF80600684603F088FDD1
:1013C00017208DF8080001208DF8090002208DF803
:1013D0000A0001208DF80B0002A801F0C2FF0EBD2B
:1013E00010B54FF400710F4802F00EF928B14FF418
:1013F00080710C4802F008F990B9642001F0BAFE3F
:101400004FF40071074802F0FFF808B9012010BD41
:101410004FF48071034802F0F7F808B90220F6E7AC
:101420000020F4E7000802407FB505460C46012184
:10143000102002F06EFB0295ADF804400020ADF8DC
:101440000600ADF80C0001A94D4802F08EFF012204
:1014500011464B4803F02AFC0121494803F04EFC99
:101460000121474803F00AF836208DF800000020DB
:101470008DF8010001208DF802008DF80300684608
:1014800001F06FFF7FBD7FB505460C46012120208E
:1014900002F03FFB0295ADF804400020ADF80600D5
:1014A000ADF80C0001A9374802F05FFF0122114698
:1014B000344803F0FBFB0121324803F01FFC0121FB
:1014C000304802F0DBFF37208DF8000000208DF857
:1014D00001008DF8020001208DF80300684601F03C
:1014E00040FF7FBD00B585B004F0A1F8012125487B
:1014F00003F0F3FB01283ED1022023490122CDE96C
:101500000112224B0092CDE90310214A21492248C1
:1015100000F00CFE202021491022CDE90112CDE976
:10152000031001201E4B82071E4900901E4800F048
:10153000FDFD4FF4804019494210CDE90112CDE97B
:1015400003100220164B194A19490090194800F05F
:10155000EDFD022011490122CDE90112164B009246
:10156000CDE90310154A1649164800F0DFFD0121A8
:10157000044803F0C3FB04F075F805B000BD00009B
:1015800000100040001400400004024000480140E8
:1015900000000140DC170020AC00002000080240E1
:1015A0000018004034180020B4000020000400405F
:1015B0008C180020BC0000200020004000080040E3
:1015C000E4180020C40000201CB50121022002F014
:1015D00057FA4FF44050009001208DF8040000208D
:1015E0008DF8060003208DF8050001208DF8070016
:1015F0006946074801F0A6FF4FF48051044802F005
:101600001FF84FF40051024802F01AF81CBD000008
:101610000004024010B58AB0044601210C2002F0FB
:101620002FFA0121080502F074FA08220C21514812
:1016300002F013F8082202214F4802F00EF84FF48E
:101640008050089002208DF824008DF8250000209D
:101650008DF8260001208DF8270008A9454801F0E3
:1016600071FF0420089008A9434801F06BFF002097
:1016700001213222414BCDE900210290404AC906A6
:10168000404800F081F804940020ADF81400ADF853
:101690001600ADF81800ADF81C000C20ADF81A00CB
:1016A00004A93748001F02F0F0FB35208DF80C002C
:1016B00000208DF80D008DF80E0001208DF80F0030
:1016C00003A801F04EFE002240F225512C48001FD5
:1016D00002F019FD012240F224412948001F02F0C6
:1016E00012FD012240212648001F02F003FD0121C6
:1016F0002348001F02F051FC0AB010BD02280CDD87
:10170000411E1E4A515C432907D1811E515C52295A
:1017100003D1811E88B200BF00BF704710B503F02F
:1017200086FF3221174800F0D3F8044640F22441E6
:101730001348001F02F022FD68B11148001F008805
:101740000F48001F80882046FFF7D8FF0022322173
:101750000C4800F070F803F085FF10BD10B503F0E1
:1017600066FF002332220549064800F0AFF803F077
:1017700079FF10BD00080240000C024058150020FF
:1017800004500040106002402DE9F04790B004463C
:101790000D4616461F46DDE9199ADDF8608051486E
:1017A000844204D90121880502F06AF903E001218D
:1017B000480502F065F9204603F004FC0195029605
:1017C0000397B9F1000F02D14020049001E00020FE
:1017D0000490CDF814804FF48060079000200990A9
:1017E000069008900A904FF400300B9000200C9067
:1017F00003200D9000200E900F9001A9204603F0C9
:1018000083FC01220421204603F045FDBAF1010FBB
:1018100005D101221021204603F03DFD04E0002205
:101820001021204603F037FD0121204603F0A6FCDD
:1018300010B0BDE8F08770B505460E46144600218D
:10184000284603F09BFC082C2FD2DFE804F00409A3
:101850000E13191E23282449284603F008FD25E00D
:101860002249284603F003FD20E02149284603F0E1
:10187000FEFC1BE04FF0FA51284603F0F8FC15E09F
:101880001C49284603F0F3FC10E01B49284603F0EE
:10189000EEFC0BE01949284603F0E9FC06E04FF0A6
:1018A0003D51284603F0E3FC00E000BF00BF00BF4D
:1018B000284603F0B0FC0028FAD13146284603F050
:1018C0007EFC0121284603F059FC70BD00BFFEE7F5
:1018D00070B505460C46284603F073FC201A86B204
:1018E000304670BD006402403D008010400F001083
:1018F00000003D103D000020400F002000003D2072
:1019000010B58AB004460121042002F0B9F8012183
:10191000880402F0FEF807220A215D4801F09DFECE
:1019200007220B215A4801F098FE4FF440600890BE
:1019300002208DF824008DF8250000208DF8260067
:1019400001208DF8270008A9514801F0FBFD002077
:10195000012132224F4BCDE9002102904E4AC906A7
:101960004E48FFF711FF04940020ADF81400ADF8C5
:101970001600ADF81800ADF81C000C20ADF81A00E8
:1019800004A94548001F02F080FA27208DF80C00BA
:1019900000208DF80D008DF80E0001208DF80F004D
:1019A00003A801F0DEFC002240F225513A48001F56
:1019B00002F0A9FB012240F224413748001F02F047
:1019C000A2FB012240213448001F02F093FB0121B9
:1019D0003148001F02F0E1FA0AB010BD012819DDFC
:1019E000411E2C4A515C232904D024290CD04029C3
:1019F0000FD104E027490978294A117000BF254911
:101A00000978284A117000BF22490978264A1170C6
:101A100000BF05E0012803D11E490978234A11704F
:101A2000704710B503F003FE32211C48FFF750FF4A
:101A3000044640F224411848001F02F09FFB60B1A9
:101A40001548001F0088144800882046FFF7C6FF8D
:101A5000012232211148FFF7EEFE40F224410E48E8
:101A6000001F02F082FB40F224410B48001F02F0ED
:101A7000C0FB03F0F7FD10BD10B503F0D8FD012346
:101A8000322204490548FFF721FF03F0EBFD10BDAA
:101A9000000802408A1500200448004028600240E7
:101AA0008A000020890000208B0000208C0000208C
:101AB00070B50546002404E0285D00F004FB601CBE
:101AC000C4B2052CF8DB70BDFD490A780978491CC1
:101AD000FB4B1970FB4988540978552903D0002124
:101AE0001A4611707047F64909780B2900DAF9E7B0
:101AF000F449497850390A2956D2DFE801F0050D3A
:101B0000151D252D353D454DEF49EE4A921C1368B4
:101B10000B6052684A6047E0EC49EA4A921C13683D
:101B20000B6052684A603FE0E949E64A921C13683C
:101B30000B6052684A6037E0E649E24A921C13683B
:101B40000B6052684A602FE0E349DE4A921C13683A
:101B50000B6052684A6027E0E049DA4A921C136839
:101B60000B6052684A601FE0DD49D64A921C136838
:101B70000B6052684A6017E0DA49D24A921C136837
:101B80000B6052684A600FE0D749CE4A921C136836
:101B90000B6052684A6007E0D449CA4A921C136835
:101BA0000B6052684A6000BF00BF0021C44A117038
:101BB00000BF97E710B50446204600F084FA10BD38
:101BC00010B5CB48FFF774FF642001F0D3FAC94881
:101BD000FFF76EFF642001F0CDFA10BD0146002929
:101BE00001DA484201B2C8B27047B848B0F9000003
:101BF00000EE100AB8EEC00ADFEDBF0A80EE201A30
:101C0000B3EE000A21EE000AF2EE040A20EE200AEA
:101C1000BDEEC00A10EE100A00B2B8490880AB4809
:101C2000B0F9020000EE100AB8EEC00ADFEDB20A09
:101C300080EE201AB3EE000A21EE000AF2EE040A4A
:101C400020EE200ABDEEC00A10EE100A00B2AC4928
:101C500008809E48B0F9040000EE100AF8EEC00AB1
:101C60009FEDA51A80EE810AF3EE000A20EE200A0D
:101C7000F2EE040A20EE200ABDEEC00A10EE100AB1
:101C800000B2A049088070479248B0F9000000EE09
:101C9000100AB8EEC00ADFED980A80EE201A9FED18
:101CA0009A0A21EE000ABDEEC00A10EE100A00B238
:101CB000964908808748B0F9020000EE100AB8EE95
:101CC000C00ADFED8D0A80EE201A9FED8F0A21EE0B
:101CD000000ABDEEC00A10EE100A00B28C4908805E
:101CE0007C48B0F9040000EE100AF8EEC00A9FED3F
:101CF000821A80EE810ADFED840A20EE200ABDEE12
:101D0000C00A10EE100A00B28249088070470146EE
:101D1000F0EE400AD1ED001A71EEE01AB0EE610A61
:101D2000D1ED081A71EE801AC1ED081AD1ED081A2A
:101D30009FED792AF4EEC21AF1EE10FA04DDDFED20
:101D4000761AC1ED081A0CE0D1ED081A9FED732A3E
:101D5000F4EEC21AF1EE10FA03D2DFED701AC1ED03
:101D6000081AD1ED041A30EE611A81ED040AD1EDA2
:101D7000061A91ED082A61EE821A91ED052A42EECB
:101D8000001A91ED072A42EE011AC1ED021AD1EDB7
:101D9000021A9FED632AF4EEC21AF1EE10FA03DD87
:101DA000DFED5F1AC1ED021AD1ED021A9FED5D2A37
:101DB000F4EEC21AF1EE10FA03D2DFED5A1AC1EDB9
:101DC000021AD1ED021AFDEEE11A11EE900A7047E7
:101DD00000B50246B0EE403A5348007898B95348EF
:101DE000D0ED002A5248C0ED002A01204E4908706B
:101DF000B3EE040A4F4880ED050AB0EE000A80ED0C
:101E0000070A80ED003A4348B0F9000000EE100ADE
:101E1000B8EEC00A4748FFF77AFF00EE100AB8EEA6
:101E2000C00A444880ED020A012A05D190ED020A59
:101E3000B1EE400A80ED020A3E4890ED020AF7EE4C
:101E4000000AB4EEE00AF1EE10FA0CD290ED020AAC
:101E5000FFEE000AB4EEE00AF1EE10FA03DD9FEDAA
:101E6000360A80ED020A334890ED020A32EEC00ACB
:101E70002F4880ED000A2F4890ED020A30EE220A2A
:101E80002A4880ED000A2A4890ED000AB5EEC00A03
:101E9000F1EE10FA03D29FED280A80ED000A2348E4
:101EA00090ED000AB5EEC00AF1EE10FA04D29FEDF3
:101EB000220A1F4880ED000A1D4890ED000A3DE00F
:101EC000A4000020E0150020340000203C00002089
:101ED000440000204C000020540000205C00002042
:101EE000640000206C000020740000207C000020B2
:101EF0009A0000209F000020000000478E00002074
:101F00009000002092000020000034439400002044
:101F1000960000209800002000007A4500007AC555
:101F200000004843000048C3A50000203000002006
:101F30002C000020BC150020000000005FED080A06
:101F4000B4EEE00AF1EE10FA03DD1FED0B0A80EDAE
:101F5000000A084890ED000A5FED0F0AB4EEE00AAF
:101F6000F1EE10FA04DD1FED120A034880ED000ABD
:101F700000BD0000300000202C00002010B588B00B
:101F800004460121084601F07BFD0121480401F0CF
:101F9000C0FD07220221604801F05FFB07220321F8
:101FA0005D4801F05AFB0420069002208DF81C00C9
:101FB0008DF81D0000208DF81E0001208DF81F00F7
:101FC00006A9554801F0BEFA0820069002208DF8B7
:101FD0001C0000208DF81F0006A94F4801F0B2FA3E
:101FE00002940020ADF80C00ADF80E00ADF8100022
:101FF000ADF814000C20ADF8120002A9474801F01A
:1020000044FF002240F22771444802F07CF801228C
:1020100040F22551414802F076F840213F4802F055
:10202000A4F801213D4801F0B8FF26208DF80400F6
:1020300001208DF8050008208DF8060001208DF89C
:10204000070001A801F08DF908B010BD10B540F2ED
:102050002771324802F092F8E0B1314802780078F6
:10206000401C2F4B18702F48815C2C4801F0C0FF9A
:1020700040F22771294802F0BCF8294800782A4923
:102080000978884219D1002240F22771234802F0D2
:102090003AF812E040F22551204802F06FF860B1A2
:1020A0001E49091D0988C8B2FFF70EFDFFF7ECFDB8
:1020B00040F22551194802F09CF84FF45871174826
:1020C00002F097F810BD10B5044617480178007863
:1020D000401C154A107013484454012240F22771E5
:1020E0000E4802F010F810BD10B504460FE020783D
:1020F0000D2802D1FFF7E7FF08E020780A2802D177
:10210000FFF7E1FF02E02078FFF7DDFF641C207895
:102110000028ECD110BD0000000002400044004047
:10212000A6000020DA160020A70000202DE9F05FAD
:1021300005460C46174698460AAE96E8400E3846C5
:1021400002F060F9A0F50040286095ED000AF8EE75
:10215000C00A95ED011A80EE810A9FEDA21AC0EE29
:10216000010A9FEDA10A20EE800A84ED0A0AD4ED4F
:10217000010A95ED000AB8EEC00A30EE800A84ED3F
:10218000010A2946204600F09DF984ED090A2046FF
:1021900000F037FA84ED0B0A9448007800286ED1DD
:1021A00094ED0B0AB5EEC00AF1EE10FA39DB514698
:1021B000484601F045FA58460E9901F03FFA012EC3
:1021C00006D0022E0ED0032E16D0042E28D11DE0EC
:1021D00094ED0B0ABDEEC00A10EE101A404602F054
:1021E000B2FA1DE094ED0B0ABDEEC00A10EE101A13
:1021F000404602F0AAFA13E094ED0B0ABDEEC00AC5
:1022000010EE101A404602F0A2FA09E094ED0B0A13
:10221000BDEEC00A10EE101A404602F09AFA00BF56
:1022200063E094ED0B0AB5EEC00AF1EE10FA5CD251
:102230005146484601F002FA58460E9901F000FA5C
:10224000012E06D0022E0FD0032E19D0042E2DD130
:1022500021E094ED0B0ABDEEC00A10EE100A4142D7
:10226000404602F070FA21E094ED0B0ABDEEC00A80
:1022700010EE100A4142404602F067FA16E016E0FE
:1022800094ED0B0ABDEEC00A10EE100A4142404622
:1022900002F05DFA0AE094ED0B0ABDEEC00A10EE02
:1022A000100A4142404602F054FA00BF1DE0012EE0
:1022B00006D0022E09D0032E0CD0042E14D10EE02D
:1022C0000021404602F03FFA0EE00021404602F0B5
:1022D0003CFA09E00021404602F039FA04E000210E
:1022E000404602F036FA00BF00BF4FF400413846C6
:1022F00002F084F8BDE8F09F1CB50121072001F031
:10230000BFFB3020009001208DF8040000208DF8E4
:10231000060003208DF8050001208DF807006946AE
:10232000334801F00FF91021314801F089F92021DB
:102330002F4801F085F90720009001208DF8040056
:1023400000208DF8060003208DF8050001208DF88F
:1023500007006946274801F0F5F80121254801F0FA
:102360006FF90221234801F06BF90421214801F0A3
:1023700067F94EF23300009001208DF80400002030
:102380008DF8060003208DF8050001208DF8070068
:102390006946194801F0D6F80121174801F050F9B3
:1023A0000221154801F04CF91021134801F048F9B9
:1023B0002021114801F044F94FF400510E4801F07A
:1023C0003FF94FF480410C4801F03AF94FF40041D5
:1023D000094801F035F91CBDC0ED120A80ED000A74
:1023E000704700000AD7233C00007042A80000207C
:1023F00000000240000402400008024070B5DDE920
:10240000044580ED000A9FEDA64A80ED014A9FED4C
:10241000A44A80ED034A9FEDA24A80ED044A9FED55
:10242000A04A80ED084AC0ED050A80ED061AC0ED0D
:10243000071A9FED9B4A80ED094A9FED994A80ED6E
:102440000A4A9FED974A80ED0C4A9FED954A80ED30
:102450000D4A9FED934A80ED114AC0ED0E2A80EDA2
:102460000F3AC0ED103A483080ED002A04EE101A01
:10247000B8EE444A80ED014A028143818481C581DE
:10248000483870BD80ED000AC0ED090A704780ED44
:10249000000A704780ED120A704711B990ED000AEA
:1024A000704790ED120AFBE780ED0E0AC0ED0F0AAF
:1024B00080ED101A704780ED050AC0ED060A80ED28
:1024C000071A704790ED010AD0ED000A91ED011A4C
:1024D00010EE810A80ED030AD0ED030AB0F8542013
:1024E000524200EE102AB8EEC00AF4EEC00AF1EE35
:1024F00010FA14DBD0ED030AB0F8542000EE102AD5
:10250000B8EE400AF4EEC00AF1EE10FA07D89FEDDB
:10251000640A80ED030A9FED620A80ED080A90EDDF
:10252000080AD0ED030A30EE200A80ED080AD0ED4B
:10253000080AB0F8502000EE102AB8EE400AF4EE77
:10254000C00AF1EE10FA07DDB0F8502000EE102AB4
:10255000B8EE400A80ED080AD0ED080AB0F8502025
:10256000524200EE102AB8EEC00AF4EEC00AF1EEB4
:1025700010FA08D2B0F85020524200EE102AB8EEFD
:10258000C00A80ED080A90ED050AD0ED030A20EE9E
:10259000200AD0ED060A90ED081A00EE810AD0ED6F
:1025A000030A90ED041A70EEC10A90ED071A01EECD
:1025B000200A80ED020A90ED020AD0ED120AB4EE74
:1025C000E00AF1EE10FA04DD90ED120A80ED020A45
:1025D00010E090ED020AD0ED120AF1EE600AB4EEBE
:1025E000E00AF1EE10FA05D290ED120AB1EE400ABF
:1025F00080ED020A90ED030A80ED040A90ED020AD4
:10260000704790ED090AD0ED0A0A30EE600A80EDBD
:102610000C0A90ED110AD0ED0C0A30EE200A80ED84
:10262000110A90ED0E0AD0ED0C0A20EE200AD0ED32
:102630000F0A90ED111A00EE810AD0ED0C0A90ED10
:102640000D1A70EEC10A90ED101A01EE200A80ED0D
:102650000B0A90ED0B0AD0ED130AB4EEE00AF1EE8E
:1026600010FA04DD90ED130A80ED0B0A10E090EDF6
:102670000B0AD0ED130AF1EE600AB4EEE00AF1EEB7
:1026800010FA05D290ED130AB1EE400A80ED0B0A64
:1026900090ED0C0A80ED0D0A90ED0B0A70470000DA
:1026A0000000000000B589B00121084601F042FA9F
:1026B0000121084601F0E4F901220821F94800F05F
:1026C000CCFF01220921F74800F0C7FF4FF440700A
:1026D000079002208DF8200001208DF8230007A923
:1026E000F04800F02FFF04A801F073FE4FF6FF70D2
:1026F00005900020ADF81000ADF81800ADF81200FC
:1027000004A9E94801F031FE0A231A460321E648EC
:1027100002F09FFB0020ADF804000120ADF8080096
:102720000020ADF80C0001A9DF4802F0F5F9042003
:10273000ADF8040001A9DC4802F0EEF94FF40041C5
:10274000D94801F05BFE0121D74801F097FE09B09E
:1027500000BD00B589B00121084601F0DAF9012178
:10276000084601F08DF90121022001F089F90122CA
:102770000F21CC4800F071FF01220321CB4800F06B
:102780006CFF02208DF8200000208DF823004FF40C
:102790000040079007A9C34800F0D4FE0820079026
:1027A00007A9C24800F0CEFE04A801F012FE4FF6C1
:1027B000FF7005900020ADF81000ADF81800ADF8DE
:1027C000120004A94FF0804001F0CFFD0A231A4601
:1027D0000321580702F03DFB0020ADF80400012062
:1027E000ADF808000020ADF80C0001A94FF08040C2
:1027F00002F092F90420ADF8040001A9000702F0EC
:102800008BF94FF40041C80301F0F8FD012188075E
:1028100001F034FE09B000BD00B589B001210220ED
:1028200001F077F90121022001F02AF902220421A6
:102830009E4800F012FF022205219C4800F00DFF87
:102840003020079002208DF8200000208DF8230012
:1028500007A9964800F076FE04A801F0BAFD4FF6ED
:10286000FF7005900020ADF81000ADF81800ADF82D
:10287000120004A98E4801F078FD0A231A460321AC
:102880008B4802F0E6FA0020ADF804000120ADF814
:1028900008000020ADF80C0001A9854802F03CF9C1
:1028A0000420ADF8040001A9814802F035F94FF485
:1028B00000417F4801F0A2FD01217D4801F0DEFDCD
:1028C00009B000BD00B589B00121042001F021F953
:1028D0000121022001F0D4F802220621734800F001
:1028E000BCFE02220721714800F0B7FEC02007900D
:1028F00002208DF8200000208DF8230007A96B48E6
:1029000000F020FE4FF6FF7005900020ADF810009B
:10291000ADF81800ADF8120004A9664801F025FDD5
:102920000A231A460321634802F093FA0020ADF807
:1029300004000120ADF808000020ADF80C0001A94A
:102940005C4802F0E9F80420ADF8040001A95948F8
:1029500002F0E2F84FF40041564801F04FFD01212A
:10296000544801F08BFD09B000BD00B589B00121CC
:10297000022001F0DFF80121042001F081F8032298
:1029800006214D4800F069FE032207214A4800F065
:1029900064FE02208DF8200000208DF82300C02066
:1029A000079007A9444800F0CDFD04A801F011FDEF
:1029B0004FF6FF7005900020ADF81000ADF818003C
:1029C000ADF8120004A93D4801F0CFFC0A231A46D5
:1029D00003213A4802F03DFA0020ADF8040001203E
:1029E000ADF808000020ADF80C0001A9334802F052
:1029F00093F80420ADF8040001A9304802F08CF8E7
:102A00004FF400412D4801F0F9FC01212B4801F061
:102A100035FD09B000BD30B58BB005460C4601212F
:102A2000022001F02DF80121480401F083F803226F
:102A300008211E4800F011FE02208DF82800002019
:102A40008DF82A0003208DF8290001208DF82B0035
:102A50000002099009A9154800F074FD0020ADF8A6
:102A60002000ADF81A000795ADF8184006A91448E3
:102A700001F07BFC6020ADF804000020ADF81200EE
:102A80000120ADF8060001A90D4801F003FD082161
:102A90000B4801F08CFE0121094801F0EFFC0BB05E
:102AA00030BD000000000240000001400004024070
:102AB00000040040000800400008024000040140FB
:102AC0000044014030B58BB005460C460121022080
:102AD00000F0D6FF0121880401F02CF8032209211F
:102AE0008E4800F0BAFD02208DF8280000208DF8F5
:102AF0002A0003208DF8290001208DF82B004002C8
:102B0000099009A9854800F01DFD0020ADF82000BE
:102B1000ADF81A000795ADF8184006A9804801F0F5
:102B200024FC6020ADF804000020ADF81200012064
:102B3000ADF8060001A97A4801F0ACFC08217848FC
:102B400001F035FE0121764801F098FC0BB030BD54
:102B500030B58BB005460C460121022000F090FFF5
:102B60000121402000F0D5FF09220E216B4800F022
:102B700074FD09220F21694800F06FFD02208DF8D5
:102B8000280000208DF82A0003208DF8290001205C
:102B90008DF82B008003099009A9604800F0D2FC51
:102BA0004FF40040099009A95C4800F0CBFC0020DC
:102BB000ADF82000ADF81A000795ADF8184006A949
:102BC000584801F0D2FB6020ADF804000020ADF8B9
:102BD00012000120ADF8060001A9524801F05AFC8C
:102BE00001A9504801F08FFC08214E4801F0DFFD9B
:102BF00008214C4801F0E4FD01214A4801F03EFC67
:102C00000BB030BD30B58BB005460C4601210846EF
:102C100000F036FF0121802000F07BFF0922062111
:102C2000414800F01AFD02208DF8280000208DF8A0
:102C30002A0003208DF8290001208DF82B00402068
:102C4000099009A9384800F07DFC0020ADF820006B
:102C5000ADF81A000795ADF8184006A9334801F001
:102C600084FB6020ADF804000020ADF812000120C4
:102C7000ADF8060001A92D4801F00CFC08212B48F5
:102C800001F095FD0121294801F0F8FB0BB030BDA2
:102C900030B58BB005460C460121084600F0F0FE29
:102CA0000121080200F035FF092207211E4800F02B
:102CB000D4FC02208DF8280000208DF82A00032083
:102CC0008DF8290001208DF82B008020099009A99A
:102CD000154800F037FC0020ADF82000ADF81A00D0
:102CE0000795ADF8184006A9114801F03EFB602099
:102CF000ADF804000020ADF812000120ADF8060088
:102D000001A90B4801F0C6FB0821094801F04FFD5D
:102D10000121074801F0B2FB0BB030BD00040240B6
:102D2000004801400018004000000240001C004024
:102D30000020004010B58AB004460121084600F08A
:102D40009FFE0121C80400F0E4FE08220021CF48C4
:102D500000F083FC08220121CC4800F07EFC012019
:102D6000089002208DF824008DF8250000208DF8B1
:102D7000260001208DF8270008A9C44800F0E2FBD6
:102D8000022008908DF8240000208DF8270008A963
:102D9000BE4800F0D7FB002001213222BC4BCDE918
:102DA00000210290BB4AC906BB48FEF7EDFC049423
:102DB0000020ADF81400ADF81600ADF81800ADF81D
:102DC0001C000C20ADF81A0004A9B248001F01F045
:102DD0005CF834208DF80C0000208DF80D008DF883
:102DE0000E0001208DF80F0003A800F0BAFA0022AF
:102DF00040F22551A748001F01F085F9012240F259
:102E00002441A448001F01F07EF901224021A1487D
:102E1000001F01F06FF901219E48001F01F0BDF86D
:102E20000AB010BD02280CDD411E994A515C4329AD
:102E300007D1811E515C522903D1811E88B200BF87
:102E400000BF704710B502F0F2FB32219248FEF746
:102E50003FFD044640F224418E48001F01F08EF9E8
:102E600060B18C48001F00888A4800882046FFF720
:102E7000D9FF022232218848FEF7DDFC02F0F2FB86
:102E800010BD10B502F0D3FB0223322280498248E4
:102E9000FEF71CFD02F0E6FB10BD70B506460D46C0
:102EA00014464FF4FA606043B42190FBF1F000F552
:102EB000FA7084B25521794801F09AF800BF402198
:102EC000764801F045F90128F9D15521734801F000
:102ED0008FF800BF4021714801F03AF90128F9D17B
:102EE00008216E4801F084F800BF40216B4801F0D2
:102EF0002FF90128F9D10321684801F079F800BFC2
:102F00004021664801F024F90128F9D101216348E4
:102F100001F06EF800BF4021604801F019F9012866
:102F2000F9D1E9B25D4801F063F800BF40215B4888
:102F300001F00EF90128F9D12912584801F058F88A
:102F400000BF4021554801F003F90128F9D131466D
:102F5000524801F04DF800BF4021504801F0F8F808
:102F60000128F9D1E1B24D4801F042F800BF4021FB
:102F70004A4801F0EDF80128F9D12112474801F043
:102F800037F800BF4021454801F0E2F80128F9D1A7
:102F900070BD70B506460D4614464FF4FA606043A6
:102FA0004FF4877190FBF1F000F5FA7084B255216F
:102FB0003A4801F01DF800BF4021384801F0C8F838
:102FC0000128F9D15521354801F012F800BF402100
:102FD000324801F0BDF80128F9D108212F4801F04D
:102FE00007F800BF40212D4801F0B2F80128F9D1BF
:102FF00003212A4800F0FCFF00BF4021274801F0D0
:10300000A7F80128F9D10121244800F0F1FF00BF01
:103010004021224801F09CF80128F9D1E9B21F486B
:1030200000F0E6FF00BF40211C4801F091F80128A4
:10303000F9D12912194800F0DBFF00BF40211748E1
:1030400001F086F80128F9D13146144800F0D0FF8C
:1030500000BF4021114801F07BF80128F9D1E1B20D
:103060000E4800F0C5FF00BF40210C4801F070F889
:103070000128F9D12112094800F0BAFF00BF402110
:10308000064801F065F80128F9D170BD0000024042
:1030900094190020044C0040406002400050004061
:1030A00010B502F017FB10BD10B502F058FB10BDB3
:1030B00010B50446204604F065FA10BD10B53E4830
:1030C0000078012805D102F0B2FA02F0F6FB02F016
:1030D000C9FA10BD70B504466FF0040000F08EF917
:1030E000E11704EB5171C1F3C701344A1170E117C4
:1030F00004EB5171CD1041F2883045430520304931
:1031000008804FF0E020006940F002004FF0E0211D
:10311000086108464561006940F00100086170BD22
:103120002DE9F047074600264FF0E020D0F8149034
:103130002248007807FB00F8FFF7B2FF4FF0E020CD
:10314000856911E04FF0E0208469AC420CD0AC42BC
:1031500002D2281B064403E0A9EB040028440644DD
:103160002546464500D300E0ECE700BFFFF79CFF93
:10317000BDE8F08770B504460F480078A0B111484B
:10318000007888B90E480088844206DB0C48008825
:1031900094FBF0F52846FFF78BFF0948008894FB65
:1031A000F0F100FB114084B24FF47A7104FB01F09E
:1031B000FFF7B6FF70BD000016010020D40000200C
:1031C000D60000200901002000BF704700BF4E4A12
:1031D000128802F04002002AF9D0C2B24A4B9A800B
:1031E000704710B588B004460121084600F048FC3D
:1031F0000121102000F09EFC07220921434800F025
:103200002CFA07220A21414800F027FA4FF4C06047
:10321000069002208DF81C008DF81D0000208DF80E
:103220001E0001208DF81F0006A9384800F08AF919
:1032300002940020ADF80C00ADF80E00ADF81000BF
:10324000ADF814000C20ADF8120002A92E4800F0D1
:103250001CFE01212C4800F0A0FE012240F2255165
:10326000294800F050FF25208DF8040003208DF838
:1032700005008DF8060001208DF8070001A800F078
:1032800070F808B010BD10B502F0D1F940F2255128
:103290001D4800F073FF10B31B4800F0ADFEC4B230
:1032A0001B48008800F40040C8B91948008800F4A1
:1032B000804060B10A2C03D000201549088020E02E
:1032C0001348008840F400401149088019E00D2C93
:1032D00006D10F48008840F480400D49088010E076
:1032E0000B480088C0F30D000A490C5408480088B8
:1032F000401C0749088008460088C72801DD0020D7
:10330000088002F0AFF910BD00100140000002403B
:10331000DC000020C6190020094880470948004702
:10332000FEE7FEE7FEE7FEE7FEE7FEE7FEE7FEE775
:10333000FEE7FEE704480549054A064B70470000D2
:103340001904000889010008302A002030300020CC
:10335000302C0020302C002032490143324A1160C9
:10336000704770B5002100230F22C4781CB32E4C87
:10337000246804F4E064C4F5E064C4F30721C1F1F7
:103380000404E3B20A4144789C40E1B284781440DA
:1033900021430C07210E254C05786155047804F073
:1033A0001F050124AC4005786D11AD0005F1E02545
:1033B000C5F8004109E0047804F01F050124AC4081
:1033C0001B4D0678761145F8264070BD194A0A4013
:1033D0000243154B1B1F1A60704739B1124A121D68
:1033E00012680243104B1B1D1A6006E00E4A121DA4
:1033F000126882430C4B1B1D1A607047042808D1C9
:103400004FF0E021096941F004014FF0E022116121
:1034100007E04FF0E021096921F004014FF0E022BC
:10342000116170470000FA050CED00E000E400E0D7
:1034300080E100E080FFFF1F10B5044698488442F9
:1034400008D10121084600F086FB0021012000F090
:1034500082FB76E09348844208D10121022000F0EB
:103460007AFB0021022000F076FB6AE08E4884425D
:1034700008D10121042000F06EFB0021042000F09F
:103480006AFB5EE08948844208D10121082000F0EF
:1034900062FB0021082000F05EFB52E08448844279
:1034A00008D10121102000F056FB0021102000F06F
:1034B00052FB46E07F48844208D10121202000F0E1
:1034C0004AFB0021202000F046FB3AE07A48844283
:1034D00008D10121402000F03EFB0021402000F0F7
:1034E0003AFB2EE07548844208D10121802000F08B
:1034F00032FB0021802000F02EFB22E07048844245
:1035000008D10121801500F026FB0021A01500F054
:1035100022FB16E06B48844208D10121401500F0DF
:103520001AFB0021601500F016FB0AE06648844291
:1035300007D10121001500F00EFB0021201500F03D
:103540000AFB10BDF0B50A4600210023002400BF8D
:103550003DE0012505FA01F3156805EA03049C42E4
:1035600034D105684F000326BE40B5430560157988
:103570004E00B5400668354305601579012D02D02F
:103580001579022D16D185684F000326BE40B5433C
:10359000856055794E00B54086683543856045683D
:1035A00001268E40B5434560456896798E40B6B297
:1035B00035434560C5684F000326BE40B543C5602E
:1035C000D5794E00B540C6683543C560491C102901
:1035D000BFD3F0BD4FF6FF71016000210171417151
:1035E0008171C171704708B54FF480320092009A22
:1035F0000A430092009AC261C161009AC261C26925
:103600000092C269009208BD0246002013690B4077
:103610000BB1012000E0002070470146086980B22C
:1036200070470246002053690B400BB1012000E0B7
:10363000002070470146486980B270470183704797
:10364000418370470AB1018300E0418370474161C3
:10365000704742694A4042617047F0B50023002438
:103660004D07ED0E02FA05F3CE1000F1200555F8D6
:1036700026504E07F70E0F26BE40B543CF1000F17F
:10368000200646F82750CE1000F1200555F82650A8
:1036900045EA0304CE1000F1200545F82640F0BDB0
:1036A000000002400004024000080240000C0240FA
:1036B000001002400014024000180240001C0240AA
:1036C000002002400024024000280240F94800681F
:1036D00040F00100F74908600020F6490831086011
:1036E000F4480068F4490840F2490860F348091DAD
:1036F0000860F348EF4984310860F0481038091D2C
:103700000860EC48006820F48020EA490860002046
:10371000E8490C310860E7498C31086070470021A6
:10372000E44A921C117011460870704710B50146AA
:103730000022002300204A11012A02D1DD4C236817
:1037400008E0022A03D1DB4C7034236802E0D94C34
:103750007434236801F01F02012494401C400CB112
:10376000012000E0002010BD38B5002000900024AA
:10377000002500BF3120FFF7D9FF05460098401C07
:1037800000900098B0F5A04F01D0002DF2D031206C
:10379000FFF7CCFF08B1012400E00024204638BD2B
:1037A00001460020C34A106820F0F80040EAC1003A
:1037B00010607047C349086070470021BD4A7032ED
:1037C00011701170012802D004280AD104E00121EF
:1037D000B84A7032117005E00521B64A7032117096
:1037E00000E000BF00BF7047B7490860704770B580
:1037F000049C41EA82150126C6EB530645EA0645BC
:10380000054345EA0465AB4E361D356070BDAD49D4
:1038100008667047820142EA0172A64B84331A603F
:103820007047A8498866704710B5830143EA016371
:1038300043EA02739F4C8834236010BDA149086796
:103840007047A049C864704702460020994B08336E
:10385000186820F0EC6042EA01031843954B0833E6
:103860001860704702460020924B0833186820F019
:10387000784042EA010318438E4B083318607047C2
:10388000014600208B4A0832106820F003000843EC
:103890001060704787480830006800F00C007047DF
:1038A00001460020834A0832106820F0F0000843E7
:1038B00010607047014600207E4A0832106820F4EC
:1038C000E05008431060704701460020794A0832F2
:1038D000106820F4604040EAC10010607047F0B505
:1038E000002100220024022500260223714F083700
:1038F0003F6807F00C0121B1042905D0082937D110
:1039000005E0724F076036E0714F076033E0694FA2
:103910003F1D3F68C7F38056664F3F1D3F6807F065
:103920003F036EB16A4FB7FBF3F7DFF888C10CF1C4
:10393000040CDCF800C0CCF3881C07FB0CF40CE092
:10394000624FB7FBF3F7DFF86CC10CF1040CDCF845
:1039500000C0CCF3881C07FB0CF4564F3F1D3F689A
:10396000C7F301477F1C7D00B4FBF5F7076002E059
:10397000564F076000BF00BF4E4F08373F6807F043
:10398000F0010909534F7A5C0768D7404760494FF7
:1039900008373F6807F4E051890A4E4F7A5C476860
:1039A000D7408760434F08373F6807F46041490BB1
:1039B000484F7A5C4768D740C760F0BD002100F4EB
:1039C0004072B2F5407F0AD13A4A0832116821F4B8
:1039D000F811414A02401143364A08321160354A13
:1039E00070321268C0F30B031A43324B70331A6003
:1039F0007047354944390860704733494039086099
:103A0000704736490860704701460020294A8C32C9
:103A1000106820F01F004A1E1043264A8C321060A6
:103A2000704701460020234A8C32106820F4F85079
:103A30004A1E40EA02201F4A8C321060704701463D
:103A400000201C4A8C32106820F44010084310609B
:103A5000704701460020174A8C32106820F440005D
:103A600008431060704701460020124A8C321068EB
:103A700020F44030084310607047194908607047CF
:103A800039B10C4A3032126802430A4B30331A60A3
:103A900006E0084A303212688243064B30331A601F
:103AA0007047F9B1034A343212680243014B343390
:103AB0001A601CE000380240FFFFF6EA10300024D4
:103AC0000030002000004742800E47420024F400EE
:103AD00000127A00DE000020FFFCFF0F5C0147426D
:103AE000E01147428F4A126882438E4B1A6070473A
:103AF00039B18C4A121D126802438A4B1B1D1A6091
:103B000006E0884A121D12688243864B1B1D1A600C
:103B1000704739B1834A0C3212680243814B0C332F
:103B20001A6006E07F4A0C32126882437D4B0C33E8
:103B30001A60704739B17B4A103212680243794BE0
:103B400010331A6006E0774A103212688243754BD0
:103B500010331A60704739B1724A243A126802432E
:103B6000704B243B1A6006E06E4A243A1268824386
:103B70006C4B243B1A60704739B16A4A203A12688C
:103B80000243684B203B1A6006E0664A203A1268FE
:103B90008243644B203B1A60704739B1614A1C3A3A
:103BA000126802435F4B1C3B1A6006E05D4A1C3AF8
:103BB000126882435B4B1C3B1A60704739B1594A0B
:103BC000143A12680243574B143B1A6006E0554AF8
:103BD000143A12688243534B143B1A60704739B150
:103BE000504A103A126802434E4B103B1A6006E0EE
:103BF0004C4A103A126882434A4B103B1A60704795
:103C000039B1484A1C3212680243464B1C331A60D1
:103C100006E0444A1C3212688243424B1C331A604D
:103C2000704739B13F4A2032126802433D4B20337E
:103C30001A6006E03B4A203212688243394B203337
:103C40001A60704739B1374A243212680243354B43
:103C500024331A6006E0334A243212688243314B1F
:103C600024331A60704739B12E4A2C32126802434D
:103C70002C4B2C331A6006E02A4A2C3212688243FD
:103C8000284B2C331A60704739B1264A30321268FB
:103C90000243244B30331A6006E0224A3032126865
:103CA0008243204B30331A607047012808D11D49E8
:103CB0003C31096841F008011A4A3C32116007E0C2
:103CC00018493C31096821F00801164A3C3211605C
:103CD000704739B1134A273A12780243114B273BF8
:103CE0001A7006E00F4A273A127882430D4B273BA1
:103CF0001A7070470B484030006840F080700949E6
:103D000040310860704701460020064A283A126890
:103D10000A400AB1012000E000207047014926391D
:103D2000087070473438024010B501218803FFF74E
:103D300056FF00214FF48040FFF751FF10BD1C4992
:103D4000086070471B490862704730B500228B0736
:103D50001C0F0F2303FA04F2154B08338C1053F891
:103D600024309343124C08348D1044F825302346F8
:103D70008C1053F824308C07240F00FA04F42343EA
:103D80000B4C08348D1044F8253030BD0949DC3126
:103D900008607047084908607047002004492031D6
:103DA000096801F4807109B1012000E0002070472A
:103DB00000380140000027420004274210B50446A5
:103DC000FA48844208D101211020FFF708FF0021A2
:103DD0001020FFF704FF57E0F548844209D1012184
:103DE0004804FFF7EBFE00214FF40030FFF7E6FE3A
:103DF0004AE0F048844209D101218804FFF7DEFE41
:103E000000214FF48020FFF7D9FE3DE0EA488442CC
:103E100009D10121C804FFF7D1FE00214FF4002091
:103E2000FFF7CCFE30E0E548844209D101210805C6
:103E3000FFF7C4FE00214FF48010FFF7BFFE23E020
:103E4000DF48844208D101212020FFF7C8FE00216D
:103E50002020FFF7C4FE17E0DA48844209D101218F
:103E60008807FFF7ABFE00214FF08040FFF7A6FE6A
:103E70000AE0D548844207D101214005FFF79EFEA4
:103E800000216005FFF79AFE10BD2DE9FF470546AA
:103E90000E460024A14600BFA046B08900B100BF75
:103EA0002C8A24F44054F08804432C82AC8941F2DB
:103EB0000C608443B0883189084371890843044306
:103EC000AC81AC8A24F44074B0890443AC82684667
:103ED000FFF705FDB548854202D0B948854202D1B9
:103EE000DDF80C9001E0DDF80890A88900F40040AE
:103EF00040B109EBC90000EB091031684900B0FB83
:103F0000F1F707E009EBC90000EB091031688900FF
:103F1000B0FBF1F76420B7FBF0F004012009642145
:103F200001FB1078A88900F4004040B1322000EB7A
:103F3000C800B0FBF1F000F00700044308E03220B5
:103F400000EB08106421B0FBF1F000F00F00044317
:103F50002C81BDE8FF874FF416510160002181805C
:103F6000C18001810C21418100218181704710B500
:103F700002460020108A20F470600B884C8823438E
:103F80008C882343CC8823431843108210BD002122
:103F9000018041808180C180704721B1828942F4D3
:103FA0000052828104E082894DF6FF731A408281BB
:103FB0007047028B02F47F420283028B0A43028322
:103FC000704721B1828942F40042828103E08289F4
:103FD000C2F30E028281704721B1828A42F40062EC
:103FE000828204E0828A4FF2FF731A408282704715
:103FF000C1F308028280704701468888C0F3080038
:104000007047028A4FF6F0731A400282028A0A430E
:104010000282704721B1828942F00202828104E06B
:1040200082894FF6FD731A408281704782894FF270
:10403000FF731A40828182890A4382817047028A13
:104040004FF6DF731A400282028A0A4302827047E7
:1040500021B1028A42F48042028204E0028A4BF6D5
:10406000FF731A4002827047818941F0010181810A
:10407000704721B1828A42F00802828204E0828A7B
:104080004FF6F7731A4082827047028BD2B20283D6
:10409000028B42EA01220283704721B1828A42F0F8
:1040A0002002828204E0828A4FF6DF731A40828205
:1040B000704721B1828A42F01002828204E0828A33
:1040C0004FF6EF731A4082827047828A4FF6FB7375
:1040D0001A408282828A0A438282704721B1828A90
:1040E00042F00202828204E0828A4FF6FD731A4097
:1040F000828270471AB1838A0B43838202E0838AEB
:104100008B4383827047F0B50346002400260025C8
:10411000002040F66A17B94200D100BF1846C1F32B
:10412000421401F01F06012707FA06F5012C01D100
:104130000C3004E0022C01D1103000E014301AB130
:1041400007682F43076002E00768AF430760F0BDD0
:1041500002460020B1F5007F00D100BF13880B405C
:104160000BB1012000E00020704701F40072B2F5AD
:10417000007F00D100BFCA430280704770B502467D
:10418000002400230025002040F66A16B14200D129
:1041900000BFC1F3421501F01F03012606FA03F325
:1041A000012D13D19689334017E000000010014023
:1041B0000044004000480040004C004000500040D7
:1041C0000014014000780040007C0040022D02D124
:1041D000168A334001E0968A33400C12012606FA13
:1041E00004F41688344013B10CB1012000E0002023
:1041F00070BD10B50022002340F66A14A14200D120
:1042000000BF0A1201249440A3B2DC43048010BD15
:1042100010B50446FE48844208D101210846FFF744
:10422000DEFC00210120FFF7DAFC9DE0B4F1804FB5
:1042300008D101210846FFF7C1FC00210120FFF74A
:10424000BDFC91E0F348844208D101210220FFF730
:10425000B5FC00210220FFF7B1FC85E0EE48844266
:1042600008D101210420FFF7A9FC00210420FFF759
:10427000A5FC79E0E948844208D101210820FFF734
:104280009DFC00210820FFF799FC6DE0E448844282
:1042900008D101211020FFF791FC00211020FFF729
:1042A0008DFC61E0DF48844208D101212020FFF726
:1042B00085FC00212020FFF781FC55E0DA4884428C
:1042C00008D101210220FFF78AFC00210220FFF71C
:1042D00086FC49E0D548844209D101210804FFF752
:1042E0007EFC00214FF48030FFF779FC3CE0D048A1
:1042F000844209D101214804FFF771FC00214FF4E9
:104300000030FFF76CFC2FE0CA48844209D101213C
:104310008804FFF764FC00214FF48020FFF75FFC66
:1043200022E0C548844208D101214020FFF746FC25
:1043300000214020FFF742FC16E0C048844208D12B
:1043400001218020FFF73AFC00218020FFF736FC96
:104350000AE0BB48844207D101218015FFF72EFCFB
:104360000021A015FFF72AFC10BD00220288A84BEF
:1043700098420ED0AC4B98420BD0B0F1804F08D091
:10438000A44B984205D0A44B984202D0A34B98422C
:1043900004D14FF68F731A404B881A43A04B9842B2
:1043A00007D0A04B984204D04FF6FF431A400B8928
:1043B0001A4302804B68C3620B880385944B984272
:1043C00002D0994B984201D18B7A038601238382D4
:1043D00070474FF0FF314160002101800181418031
:1043E000817270470185828270470A4600210188E8
:1043F0004FF68F7319401143018070474162704737
:10440000C16270470146486A70470146088D70478F
:1044100021B1028842F00202028004E002884FF6D5
:10442000FD731A400280704721B1028842F00402F5
:10443000028004E002884FF6FB731A400280704746
:1044400021B1028842F08002028004E002884FF627
:104450007F731A400280704702884FF6F7731A4044
:10446000028002880A430280704702884FF6FF43A9
:104470001A40028002880A430280704721B10288F4
:1044800042F00102028004E002884FF6FE731A40F7
:104490000280704770B5002400220023058C4FF67F
:1044A000FE7635400584028C8388048B4FF68F7529
:1044B0002C40B51E2C400D882C43751E2A408D893A
:1044C0002A434D882A43524DA84202D0564DA84255
:1044D00013D14FF6F7752A40CD892A434FF6FB7565
:1044E0002A408D882A434FF6FF652B404FF6FF5533
:1044F0002B400D8A2B434D8A2B43838004838D6888
:104500004563028470BD70B5002400220023058C31
:104510004FF6EF7635400584028C8388048B48F68D
:10452000FF752C404FF6FF452C400D884FF6FF7667
:1045300006EA05252C434FF6DF752A408D8906EAE9
:1045400005152A434D8806EA05152A43304DA84231
:1045500002D0354DA8421DD14FF67F752A40CD8936
:104560004FF6FF7606EA05152A434FF6BF752A4037
:104570008D8806EA05152A434FF6FF352B404FF28A
:10458000FF752B400D8A06EA85052B434D8A06EA06
:1045900085052B43838004838D688563028470BD09
:1045A00070B5002400220023058C4FF6FF663540CD
:1045B0000584028C8388848B4FF68F752C404FF6D0
:1045C000FC752C400D882C434FF6FF552A408D89F1
:1045D0004FF6FF7606EA05252A434D8806EA0525AB
:1045E0002A430B4DA84202D00F4DA84238D14FF2BA
:1045F000FF752A40CD894FF6FF7606EA05252A4346
:104600004FF6FF352A408D8806EA05252A4319E032
:10461000000001400004004000080040000C004081
:104620000010004000140040000401400040014020
:10463000004401400048014000180040001C0040B8
:10464000002000404EF6FF752B404DF6FF752B40C5
:104650000D8A06EA05152B434D8A06EA05152B43FC
:10466000838084838D68C563028470BD70B5002229
:1046700000230024058C4EF6FF7635400584038C1C
:104680008488828B48F6FF752A404FF6FF452A4002
:104690000D884FF6FF7606EA05252A434DF6FF758D
:1046A0002B408D8906EA05352B434D8806EA0535F2
:1046B0002B43FE4DA84202D0FD4DA84208D14BF637
:1046C000FF752C400D8A4FF6FF7606EA85152C43C0
:1046D000848082838D680564038470BD002101801D
:1046E0004180818081608181C181018241827047E6
:1046F00070B50346002000241846183001258D406F
:10470000ACB21D8CA5431D8409B108290AD100EB68
:10471000610005684FF68F763540056005681543E2
:1047200005600FE00D1FC5F34E052844056848F6E7
:10473000FF763540056005684FF6FF7606EA0226EB
:104740003543056070BD4163704781637047C16345
:104750007047016470470A460021018B4FF68F7342
:1047600019401143018370470A460021018B48F626
:10477000FF7319404FF6FF7303EA022319430183C5
:1047800070470A460021818B4FF68F731940114301
:10479000818370470A460021818B48F6FF731940D8
:1047A0004FF6FF7303EA02231943818370470A46D9
:1047B0000021018B4FF6F7731940114301837047B5
:1047C0000A460021018B4FF2FF7319404FF6FF7329
:1047D00003EA02231943018370470A460021818BB3
:1047E0004FF6F77319401143818370470A46002141
:1047F000818B4FF2FF7319404FF6FF7303EA0223D8
:104800001943818370470A460021018B4FF6FB73E1
:1048100019401143018370470A460021018B4FF66E
:10482000FF3319404FF6FF7303EA02231943018354
:1048300070470A460021818B4FF6FB7319401143E4
:10484000818370470A460021818B4FF6FF33194060
:104850004FF6FF7303EA02231943818370470A4628
:104860000021018B4FF67F7319401143018370477C
:104870000A460021018BC1F30E014FF6FF7303EAD4
:1048800002231943018370470A460021818B4FF6AA
:104890007F7319401143818370470A460021818B41
:1048A000C1F30E014FF6FF7303EA0223194381831C
:1048B00070470A460021018C4FF6FD7319401143E1
:1048C000018470470A460021018C4FF6F7731940A6
:1048D0001143018470470A460021018C4FF6DF73B3
:1048E00019404FF6FF7303EA02131943018470471E
:1048F0000A460021018C4FF67F7319404FF6FF7373
:1049000003EA02131943018470470A460021018C0F
:104910004FF6FF5319404FF6FF7303EA0223194382
:10492000018470470A460021018C4FF2FF73194041
:104930004FF6FF7303EA02231943018470470A46C6
:104940000021018C4DF6FF7319404FF6FF7303EA07
:10495000023319430184704730B5002301248C4091
:10496000A3B2048C9C430484048C02FA01F5ADB21A
:104970002C43048430BD30B5002304248C40A3B202
:10498000048C9C430484048C02FA01F5ADB22C43E0
:10499000048430BD828B4FF2FF331A408283828BB6
:1049A0004FF6FF7303EA01231A4382837047F0B581
:1049B0000C461546002100220026078C4EF6FF7C8F
:1049C00007EA0C070784818B028C4FF6FF7707EA12
:1049D000043640F6FF4739404FF6FF7707EA0527D0
:1049E00039434FF6FF7707EA0337394345F6FF7738
:1049F0003A4046F480573A4381830284F0BD828B6B
:104A00004FF6F3731A408283828B0A438283704786
:104A1000F0B50C461546002100220026078C4FF603
:104A2000FF6C07EA0C070784818B028C4FF6FF7737
:104A300007EA04264FF60C7739404FF6FF7707EA6E
:104A400003172F4339434FF2FF573A4046F480771C
:104A50003A4381830284F0BD028B4FF2FF331A4048
:104A60000283028B4FF6FF7303EA01231A4302838A
:104A70007047F0B50C461546002100220026078C31
:104A80004FF6EF7C07EA0C070784018B028C4FF688
:104A9000FF7707EA041640F6FF4739404FF6FF77E5
:104AA00007EA033739434FF6FF7703E00000014080
:104AB0000004014007EA052739434FF65F773A4083
:104AC00046F010073A4301830284F0BD028B4FF693
:104AD000F3731A400283028B0A4302837047F0B5D6
:104AE0000C46154600210022068C4FF6FE773E400C
:104AF0000684018B028C4FF60C7631407E1C06EA50
:104B000003162E4331434FF6F576324044F001064A
:104B1000324301830284F0BD70B505460C462088FF
:104B200050B92389A28861882846FFF7D8FFE18819
:104B30002846FFF7CBFF25E0208804280AD12389E7
:104B4000A28861882846FFF794FFE1882846FFF78E
:104B500083FF17E0208808280AD12389A28861886A
:104B60002846FFF755FFE1882846FFF748FF09E090
:104B70002389A28861882846FFF719FFE188284623
:104B8000FFF708FF70BD0021018041800121818075
:104B90000021C180018170472DE9F04105460C4696
:104BA00000260127608808B9022600E00026A088B8
:104BB000012801D1022700E001272088A0B923891C
:104BC000A28861882846FFF78AFFE1882846FFF718
:104BD0007DFF23893A4631462846FFF74AFFE188A0
:104BE0002846FFF739FF13E02389A2886188284609
:104BF000FFF73FFFE1882846FFF72EFF23893A465B
:104C000031462846FFF76BFFE1882846FFF75EFF35
:104C1000BDE8F0810146486B70470146886B7047DC
:104C20000146C86B70470146086C70470A884B887C
:104C30001A438B881A43CB881A430B891A434B8932
:104C40001A438B891A43A0F8442070470021018041
:104C500041808180C180018141818181704731B172
:104C6000B0F8442042F40042A0F8442005E0B0F837
:104C70004420C2F30E02A0F84420704721B182887C
:104C800042F00402828004E082884FF6FB731A40EF
:104C90008280704721B1828842F00102828004E064
:104CA00082884FF6FE731A40828070471AB183895A
:104CB0000B43838102E083898B4383817047818228
:104CC000704702460020138A0B400BB1012000E020
:104CD00000207047CA430282704730B50246002068
:104CE00000230024158A05EA0103958905EA0104D9
:104CF00013B10CB1012000E0002030BDCA43028294
:104D0000704741EA0203A0F8483070471AB183891E
:104D10000B43838102E083898B438381704721B1F8
:104D2000828842F00802828004E082884FF6F7739E
:104D30001A408280704701894FF6F8721140018154
:104D400070470A46002101894FF68F7319401143BD
:104D50000181704730B504460D4629462046FFF7CD
:104D6000F0FF208940F00700208130BD2DE9F0419F
:104D700004460D4616461F46602D06D13B460122CD
:104D800031462046FFF775FE05E03B4601223146DD
:104D90002046FFF7A4FE29462046FFF7D2FF2089D0
:104DA00040F007002081BDE8F08130B50C460021BD
:104DB0000189C9B24FF6FF7505EA0325154325435E
:104DC0002943018130BD2DE9F04105460E461746C5
:104DD0009846002443463A4631462846FFF7E5FF09
:104DE0002C894FF6F870044044F007044FF68F709A
:104DF000044044F070042C81BDE8F081F0B5044615
:104E00000D4616461F463B46324629462046FFF7CA
:104E1000CCFF208940F480402081F0BD82884FF68D
:104E20008F731A40828082880A4382807047028989
:104E30004FF6F8731A40028102890A4302817047D3
:104E400002894FF67F731A40028102890A43028168
:104E50007047F0B50C4615461E460021002200237F
:104E60000189028B038C4FF6F877394021434FF6C6
:104E7000FC473A4040F201173A434FF6DD773B409A
:104E80004FF6FF7707EA06172F433B430181028362
:104E90000384F0BD21B1828842F08002828004E068
:104EA00082884FF67F731A4082807047A0F85010B6
:104EB00070470000002041490860091D0860091D75
:104EC0000860091D08603E483C491431086070477D
:104ED00000213A498279002A3AD00A4612680368CA
:104EE0009A430B461A600A1D126803689A430B1D09
:104EF0001A60027911440A6803681A430A602F4A4B
:104F00000832126803689A432C4B08331A601A1D42
:104F1000126803689A43294B0C331A604279102AAD
:104F20000ED11A1F126803681A43244B08331A6003
:104F30001A1D126803681A43204B0C331A600DE0E7
:104F40001E49427911440A6803681A430A6005E061
:104F5000027911440A6803689A430A607047002185
:104F6000016001710C214171002181717047134969
:104F7000103109680143114A10321160704701462F
:104F800000200E4A143212680A400AB1012000E0E3
:104F9000002070470949143108607047014600201D
:104FA000064A143212680A400AB1012000E00020CB
:104FB000704702491431086070470000003C01400E
:104FC000FFFF7F00016821F0010101600021016005
:104FD00041608160C160016121214161DB498842FA
:104FE00004D13D21D94A103A91608CE0D74918315B
:104FF000884205D14FF47461D44A103A916082E03E
:10500000D2493031884205D14FF47411CF4A103A59
:10501000916078E0CD494831884205D14FF0746104
:10502000CA4A103A91606EE0C8496031884204D1A2
:10503000C749C64A103AD16065E0C4497831884210
:1050400004D1C449C14A103AD1605CE0BF499031F3
:10505000884204D1C049BD4A103AD16053E0BB49EF
:10506000A831884205D14FF03D51B84A103AD1607D
:1050700049E0BA49884204D13D21B84A083A116052
:1050800041E0B6491831884205D14FF47461B34A02
:10509000083A116037E0B1493031884205D14FF408
:1050A0007411AE4A083A11602DE0AC49483188428B
:1050B00005D14FF07461A94A083A116023E0A7496D
:1050C0006031884204D1A249A44A121F11601AE03B
:1050D000A2497831884204D19E49A04A121F11602A
:1050E00011E09E499031884204D19B499B4A121F8E
:1050F000116008E09949A831884204D14FF03D5130
:10510000964A121F1160704710B500220268944B36
:105110001A40CC680B6823434C6923438C692343B2
:10512000CC6923430C6A23434C6A23438C6A234390
:105130004C6B23438C6B23431A430260426922F079
:105140000702D1E90B3423431A4342610B694360E0
:105150004B6883608B68C36010BD002101604160B3
:105160008160C160016141618161C161016241622F
:105170008162C162016341638163704721B102684A
:1051800042F00102026003E0026822F001020260C4
:10519000704721B1026842F40042026003E00268F5
:1051A00022F400420260704721B1026842F02002FE
:1051B000026003E0026822F0200202607047416052
:1051C00070470146486880B2704722B1036843F4D3
:1051D0000023036003E0036823F4002303600161FC
:1051E000704721B1026842F48022026003E0026845
:1051F00022F48022026070470AB1016100E0C160C0
:105200007047014600200A6802F400220AB101201A
:1052100000E000207047014600200A6802F0010209
:105220000AB1012000E000207047014600204A69D1
:1052300002F03800704730B503460A4600200024CB
:10524000464DAB4202D24149103901E04349103981
:1052500002F000550DB14C6800E00C68414D2C4047
:1052600004EA02050DB1012000E0002030BD024635
:105270003A4B9A4202D23548103801E0374810388C
:1052800001F000531BB1374B0B40C36002E0354BBC
:105290000B408360704710B501F080034BB122B121
:1052A000436943F08003436103E0436923F08003D3
:1052B000436180290BD02AB1036801F01E04234307
:1052C000036004E0036801F01E04A343036010BD03
:1052D00070B50246002000240025204EB24202D2C2
:1052E0001A4B103B01E01D4B103B1F4E0E4036B1D8
:1052F0001E2606EAD124166806EA040502E056696D
:1053000006F0800501F000560EB15C6800E01C68F4
:10531000144E344004EA010616B10DB1012000E03C
:10532000002070BD02460D4B9A4202D20748103849
:1053300001E00A48103801F000531BB1094B0B4043
:10534000C36002E0074B0B4083607047106002406F
:105350003D000020400F002000003D20106402406E
:105360003F801CF07D0F7D0F3C0F3C0F0E49086005
:1053700070470D49486070470B49886070474AF68E
:10538000AA200949086070474CF6CC4006490860DD
:10539000704701460020044AD2680A400AB1012041
:1053A00000E0002070470000003000407CB5002580
:1053B00014E06946284601F0DBFF064666B9F84866
:1053C00050F8254044B1012C06D0D4E9020100EB8D
:1053D000810060640198A064681CC5B23F2DE8D9C3
:1053E0007CBD002400BF02E0282002F0CBF8ED488D
:1053F00000780028F8D0EC4800686421B0FBF1F098
:10540000E94908600846006828B90020E7490870A3
:10541000FF2001F0EFFF00BF02F0B0FD0446E448BA
:105420000068E44908600020E1490860204602F075
:10543000A9FDE0480068DC490968B0FBF1F0C0F163
:105440006400DA49087002F097FCFFF7AFFF142000
:1054500002F098F8E0E700B587B003200021802231
:10546000D54BCDE90132CDE903104FF6FE703E2356
:10547000D24A0090AFF2950001F093FD06AAD0A1A8
:105480003E2001F0F7FE07B000BD002400BF00BFC2
:1054900002F074FD0446C6480068401CC449086018
:1054A000204602F06FFD02F066FCF1E700B587B020
:1054B000032000218022C64BCDE90132CDE9031043
:1054C0004FF6FF703F23C34A0090AFF2410001F056
:1054D00068FD06AAC0A13F2001F0CCFE07B000BDC8
:1054E00004E0002200F8012B4A1E91B20029F8D1F5
:1054F000704770B5C821BC48FFF7F2FF00230FE0EA
:10550000581C85B203EB8300B74901EB800405EB1F
:10551000850001EB8006002020706660581C83B275
:10552000092BEDD303EB8300AF4901EB800400208E
:10553000207060600846AD49086070BD70B54FF4DA
:105540007C71AB48FFF7CCFF4FF480719448FFF7B4
:10555000C7FF002413E0601CC5B2C4EBC40000EB1D
:105560004000A34901EB8003C5EBC50000EB400000
:1055700001EB80065E619FA0D864601CC4B20B2C56
:10558000E9D3C4EBC40000EB4000994901EB800370
:105590000020586197A0D86400209749086094487B
:1055A0009649086070BD0021954A1170002004E002
:1055B0000021944A1154411CC8B20828F8D3002194
:1055C000914A1170914A1170914A1160914A11608B
:1055D0007047002090490860904908709049087011
:1055E00090490870904908709049086070490860B7
:1055F000704908606C4908606A490870704710B5C6
:1056000002F0B2FBFFF7E5FFFFF7CDFFFFF796FFD4
:10561000FFF76FFF00F0ECFE01F0E3F9FFF746FF44
:10562000FFF719FF02F034FB02F0A2FB10BD7E4829
:105630000078012808D179480078FF2804D27748FB
:105640000078401C75490870704779496C4A127897
:10565000885C6C49095C764A515C01EBC0016B4A7D
:105660001170704710B500246F480078012830D1C0
:1056700002F084FC04466948007820B1674800784D
:10568000401E6649087065480078F8B9644800789B
:10569000E0B9FFF7DAFF42485C49097850F8210089
:1056A0005B490860594800785749097888420DD00D
:1056B00057480068806B401C5549096888635B48FF
:1056C0000068401C5949086002F078FC204602F04E
:1056D00059FC10BD10B5002453480078012811D1A1
:1056E00002F04CFC04464D48007840B94C48007824
:1056F000FF2804D24A480078401C494908702046D7
:1057000002F040FC10BD10B5002402F037FC044646
:1057100042480078F8B942480078E0B9FFF795FFB1
:105720001F483A49097850F821003949086037483C
:1057300000783549097888420DD035480068806B7B
:10574000401C33490968886338480068401C374961
:10575000086002F02CFC204602F014FC10BD10B5CD
:1057600000243148007801286FD102F007FC04467C
:105770002B48007880B12A480078401E28490870DC
:105780000846007848B92548007838B9204602F024
:10579000F9FBFFF7B8FF58E054E04FE04AE00000A3
:1057A000A81F00200801002000010020FC000020AC
:1057B0001801002004010020A81B0020A41D0020C7
:1057C00075432F4F532D49492053746174000000D5
:1057D000A81D0020A41F002075432F4F532D4949B9
:1057E0002049646C65000000901A0020F40000203D
:1057F000A82000203F0000002801002020010020F8
:105800000D0100200E0100200B0100200C010020E2
:10581000240100201C010020340100200901002087
:105820000A0100201701002016010020F0000020CE
:10583000B6800008204602F0A5FB06E0204602F0F4
:10584000A1FB02E0204602F09DFB10BD10B5EB4825
:10585000007890B9FFF7F9FEE9480078E949087047
:10586000E948E749097850F82100E8490860084606
:105870000068E749086002F088FB10BD10B50024FD
:10588000022001F07FFE02F079FB04460020E1498E
:105890000860204602F076FB142001F073FE02F04F
:1058A0006DFB0446DB480068DB4908600120DB49EA
:1058B0000870204602F066FB10BD70B5002602F0AD
:1058C00033FB02F05BFB0646D5480068401CD44918
:1058D0000860304602F056FBC8480078012853D1D2
:1058E000D048007820B1012804D0022809D103E073
:1058F00001250BE0002509E001250120C9490870B8
:1059000004E001250020C749087000BF00BF05B9A9
:1059100070BDC548046833E002F030FB0646E06A1B
:1059200050B3E06A401EE062E06A28BB94F83000A1
:1059300000F0370040B114F8300F00F0C8002070BC
:1059400001206070303C02E0002084F8310094F8BF
:10595000300000F0080078B93434A078B3490978F1
:105960000843B24908702078B149085C617808435F
:1059700014F83419AE4A50546469304602F002FB00
:1059800094F832003F28C7D100BFC1E740F223108E
:105990007047704710B590F8342001F10B039B5C01
:1059A00090F83540A34301F10B04A35423469B5CBC
:1059B00023B98B7A90F83640A3438B7210BD2DE942
:1059C000F04F05460F4690469946A87A99490E5CD5
:1059D00005F10B00805D11F800B00BEBC60000F084
:1059E000FF0A894850F82A4000202034E0602760F0
:1059F000207C20EA0800207484F81190207C203C50
:105A000000F0080068B994F836008849097808431E
:105A1000864908708648805D94F8351008438449AB
:105A2000885529462046FFF7B5FF5046BDE8F08F60
:105A300010B5774A1268D061754A126892F834300E
:105A400000F10B02D25C724B1B6893F835301A439D
:105A50006F4B1B6893F8344000F10B031A55827AA0
:105A60006B4B1B6893F836301A438272684A12688F
:105A700092F834106E4A525C654B1B6893F83530CF
:105A80009A436B4B5A541A46525C42B9604A1268A8
:105A900092F83630654A12789A43644B1A7010BDFA
:105AA000014600228A72002005E0002301F10B026A
:105AB0001354421CD0B20828F7D3704705E011F800
:105AC000013B00F8013B531E9AB2002AF7D1704700
:105AD0000146002002E0491C421CD0B20A78002A8C
